{
	"data": {
		"bytecode": {
			"linkReferences": {},
			"object": "6080604052348015600e575f80fd5b50610afa8061001c5f395ff3fe608060405234801561000f575f80fd5b5060043610610272575f3560e01c80639838bc2f1161014f578063dce4399a116100c1578063f5f865e411610085578063f5f865e41461069e578063f69a4787146106ba578063f8060fb5146106d6578063fa431c3e146106f2578063fb24f5cc1461070e578063fcc121b51461072a57610272565b8063dce4399a14610612578063e10c925c1461062e578063e2d6a0931461064a578063eeaa048814610666578063efeed4a01461068257610272565b8063b917989411610113578063b91798941461056a578063bc05f10614610586578063bc65010a146105a2578063bebde6d1146105be578063c7586de8146105da578063c79ca19d146105f657610272565b80639838bc2f146104de57806399c557da146104fa57806399db185d14610516578063a1374dc214610532578063b7b8ff461461054e57610272565b80634b193c09116101e85780637f1f06dc116101ac5780637f1f06dc1461043657806385db2453146104525780638c7fdb911461046e57806390be51cf1461048a57806394574f0c146104a65780639765358e146104c257610272565b80634b193c09146103aa5780634ed8a0a2146103c657806359472362146103e25780635da292d4146103fe5780637ab7eecf1461041a57610272565b80632dbad8e81161023a5780632dbad8e8146103025780632f313ab81461031e5780632f608d761461033a5780633864f845146103565780633b30a97a146103725780634335ed0c1461038e57610272565b80630ca697b4146102765780631371cf191461029257806325a1d834146102ae5780632a11d702146102ca5780632d8abfdf146102e6575b5f80fd5b610290600480360381019061028b91906109ca565b610746565b005b6102ac60048036038101906102a79190610a60565b61074e565b005b6102c860048036038101906102c391906109ca565b610754565b005b6102e460048036038101906102df91906109ca565b61075c565b005b61030060048036038101906102fb91906109ca565b610764565b005b61031c600480360381019061031791906109ca565b61076c565b005b610338600480360381019061033391906109ca565b610774565b005b610354600480360381019061034f91906109ca565b61077c565b005b610370600480360381019061036b91906109ca565b610784565b005b61038c600480360381019061038791906109ca565b61078c565b005b6103a860048036038101906103a391906109ca565b610794565b005b6103c460048036038101906103bf91906109ca565b61079c565b005b6103e060048036038101906103db91906109ca565b6107a4565b005b6103fc60048036038101906103f791906109ca565b6107ac565b005b610418600480360381019061041391906109ca565b6107b4565b005b610434600480360381019061042f91906109ca565b6107bc565b005b610450600480360381019061044b91906109ca565b6107c4565b005b61046c600480360381019061046791906109ca565b6107cc565b005b610488600480360381019061048391906109ca565b6107d4565b005b6104a4600480360381019061049f91906109ca565b6107dc565b005b6104c060048036038101906104bb91906109ca565b6107e4565b005b6104dc60048036038101906104d791906109ca565b6107ec565b005b6104f860048036038101906104f391906109ca565b6107f4565b005b610514600480360381019061050f91906109ca565b6107fc565b005b610530600480360381019061052b9190610a60565b610804565b005b61054c60048036038101906105479190610a60565b61080a565b005b610568600480360381019061056391906109ca565b610810565b005b610584600480360381019061057f9190610a60565b610818565b005b6105a0600480360381019061059b91906109ca565b61081e565b005b6105bc60048036038101906105b791906109ca565b610826565b005b6105d860048036038101906105d391906109ca565b61082e565b005b6105f460048036038101906105ef91906109ca565b610836565b005b610610600480360381019061060b91906109ca565b61083e565b005b61062c600480360381019061062791906109ca565b610846565b005b610648600480360381019061064391906109ca565b61084e565b005b610664600480360381019061065f91906109ca565b610856565b005b610680600480360381019061067b91906109ca565b61085e565b005b61069c600480360381019061069791906109ca565b610866565b005b6106b860048036038101906106b391906109ca565b61086e565b005b6106d460048036038101906106cf91906109ca565b610876565b005b6106f060048036038101906106eb91906109ca565b61087e565b005b61070c600480360381019061070791906109ca565b610886565b005b610728600480360381019061072391906109ca565b61088e565b005b610744600480360381019061073f91906109ca565b610896565b005b505050505050565b50505050565b505050505050565b505050505050565b505050505050565b505050505050565b505050505050565b505050505050565b505050505050565b505050505050565b505050505050565b505050505050565b505050505050565b505050505050565b505050505050565b505050505050565b505050505050565b505050505050565b505050505050565b505050505050565b505050505050565b505050505050565b505050505050565b505050505050565b50505050565b50505050565b505050505050565b50505050565b505050505050565b505050505050565b505050505050565b505050505050565b505050505050565b505050505050565b505050505050565b505050505050565b505050505050565b505050505050565b505050505050565b505050505050565b505050505050565b505050505050565b505050505050565b505050505050565b5f80fd5b5f80fd5b5f60ff82169050919050565b6108bb816108a6565b81146108c5575f80fd5b50565b5f813590506108d6816108b2565b92915050565b5f819050919050565b6108ee816108dc565b81146108f8575f80fd5b50565b5f81359050610909816108e5565b92915050565b5f73ffffffffffffffffffffffffffffffffffffffff82169050919050565b5f6109388261090f565b9050919050565b6109488161092e565b8114610952575f80fd5b50565b5f813590506109638161093f565b92915050565b5f80fd5b5f80fd5b5f80fd5b5f8083601f84011261098a57610989610969565b5b8235905067ffffffffffffffff8111156109a7576109a661096d565b5b6020830191508360018202830111156109c3576109c2610971565b5b9250929050565b5f805f805f8060a087890312156109e4576109e361089e565b5b5f6109f189828a016108c8565b9650506020610a0289828a016108fb565b9550506040610a1389828a016108fb565b9450506060610a2489828a01610955565b935050608087013567ffffffffffffffff811115610a4557610a446108a2565b5b610a5189828a01610975565b92509250509295509295509295565b5f805f8060808587031215610a7857610a7761089e565b5b5f610a85878288016108c8565b9450506020610a96878288016108fb565b9350506040610aa7878288016108fb565b9250506060610ab887828801610955565b9150509295919450925056fea2646970667358221220bc08cd17a473a63f27637ebc3f1d8f741dedfd3a237cdefdbd0caf01538ae21664736f6c63430008190033",
			"opcodes": "PUSH1 0x80 PUSH1 0x40 MSTORE CALLVALUE DUP1 ISZERO PUSH1 0xE JUMPI PUSH0 DUP1 REVERT JUMPDEST POP PUSH2 0xAFA DUP1 PUSH2 0x1C PUSH0 CODECOPY PUSH0 RETURN INVALID PUSH1 0x80 PUSH1 0x40 MSTORE CALLVALUE DUP1 ISZERO PUSH2 0xF JUMPI PUSH0 DUP1 REVERT JUMPDEST POP PUSH1 0x4 CALLDATASIZE LT PUSH2 0x272 JUMPI PUSH0 CALLDATALOAD PUSH1 0xE0 SHR DUP1 PUSH4 0x9838BC2F GT PUSH2 0x14F JUMPI DUP1 PUSH4 0xDCE4399A GT PUSH2 0xC1 JUMPI DUP1 PUSH4 0xF5F865E4 GT PUSH2 0x85 JUMPI DUP1 PUSH4 0xF5F865E4 EQ PUSH2 0x69E JUMPI DUP1 PUSH4 0xF69A4787 EQ PUSH2 0x6BA JUMPI DUP1 PUSH4 0xF8060FB5 EQ PUSH2 0x6D6 JUMPI DUP1 PUSH4 0xFA431C3E EQ PUSH2 0x6F2 JUMPI DUP1 PUSH4 0xFB24F5CC EQ PUSH2 0x70E JUMPI DUP1 PUSH4 0xFCC121B5 EQ PUSH2 0x72A JUMPI PUSH2 0x272 JUMP JUMPDEST DUP1 PUSH4 0xDCE4399A EQ PUSH2 0x612 JUMPI DUP1 PUSH4 0xE10C925C EQ PUSH2 0x62E JUMPI DUP1 PUSH4 0xE2D6A093 EQ PUSH2 0x64A JUMPI DUP1 PUSH4 0xEEAA0488 EQ PUSH2 0x666 JUMPI DUP1 PUSH4 0xEFEED4A0 EQ PUSH2 0x682 JUMPI PUSH2 0x272 JUMP JUMPDEST DUP1 PUSH4 0xB9179894 GT PUSH2 0x113 JUMPI DUP1 PUSH4 0xB9179894 EQ PUSH2 0x56A JUMPI DUP1 PUSH4 0xBC05F106 EQ PUSH2 0x586 JUMPI DUP1 PUSH4 0xBC65010A EQ PUSH2 0x5A2 JUMPI DUP1 PUSH4 0xBEBDE6D1 EQ PUSH2 0x5BE JUMPI DUP1 PUSH4 0xC7586DE8 EQ PUSH2 0x5DA JUMPI DUP1 PUSH4 0xC79CA19D EQ PUSH2 0x5F6 JUMPI PUSH2 0x272 JUMP JUMPDEST DUP1 PUSH4 0x9838BC2F EQ PUSH2 0x4DE JUMPI DUP1 PUSH4 0x99C557DA EQ PUSH2 0x4FA JUMPI DUP1 PUSH4 0x99DB185D EQ PUSH2 0x516 JUMPI DUP1 PUSH4 0xA1374DC2 EQ PUSH2 0x532 JUMPI DUP1 PUSH4 0xB7B8FF46 EQ PUSH2 0x54E JUMPI PUSH2 0x272 JUMP JUMPDEST DUP1 PUSH4 0x4B193C09 GT PUSH2 0x1E8 JUMPI DUP1 PUSH4 0x7F1F06DC GT PUSH2 0x1AC JUMPI DUP1 PUSH4 0x7F1F06DC EQ PUSH2 0x436 JUMPI DUP1 PUSH4 0x85DB2453 EQ PUSH2 0x452 JUMPI DUP1 PUSH4 0x8C7FDB91 EQ PUSH2 0x46E JUMPI DUP1 PUSH4 0x90BE51CF EQ PUSH2 0x48A JUMPI DUP1 PUSH4 0x94574F0C EQ PUSH2 0x4A6 JUMPI DUP1 PUSH4 0x9765358E EQ PUSH2 0x4C2 JUMPI PUSH2 0x272 JUMP JUMPDEST DUP1 PUSH4 0x4B193C09 EQ PUSH2 0x3AA JUMPI DUP1 PUSH4 0x4ED8A0A2 EQ PUSH2 0x3C6 JUMPI DUP1 PUSH4 0x59472362 EQ PUSH2 0x3E2 JUMPI DUP1 PUSH4 0x5DA292D4 EQ PUSH2 0x3FE JUMPI DUP1 PUSH4 0x7AB7EECF EQ PUSH2 0x41A JUMPI PUSH2 0x272 JUMP JUMPDEST DUP1 PUSH4 0x2DBAD8E8 GT PUSH2 0x23A JUMPI DUP1 PUSH4 0x2DBAD8E8 EQ PUSH2 0x302 JUMPI DUP1 PUSH4 0x2F313AB8 EQ PUSH2 0x31E JUMPI DUP1 PUSH4 0x2F608D76 EQ PUSH2 0x33A JUMPI DUP1 PUSH4 0x3864F845 EQ PUSH2 0x356 JUMPI DUP1 PUSH4 0x3B30A97A EQ PUSH2 0x372 JUMPI DUP1 PUSH4 0x4335ED0C EQ PUSH2 0x38E JUMPI PUSH2 0x272 JUMP JUMPDEST DUP1 PUSH4 0xCA697B4 EQ PUSH2 0x276 JUMPI DUP1 PUSH4 0x1371CF19 EQ PUSH2 0x292 JUMPI DUP1 PUSH4 0x25A1D834 EQ PUSH2 0x2AE JUMPI DUP1 PUSH4 0x2A11D702 EQ PUSH2 0x2CA JUMPI DUP1 PUSH4 0x2D8ABFDF EQ PUSH2 0x2E6 JUMPI JUMPDEST PUSH0 DUP1 REVERT JUMPDEST PUSH2 0x290 PUSH1 0x4 DUP1 CALLDATASIZE SUB DUP2 ADD SWAP1 PUSH2 0x28B SWAP2 SWAP1 PUSH2 0x9CA JUMP JUMPDEST PUSH2 0x746 JUMP JUMPDEST STOP JUMPDEST PUSH2 0x2AC PUSH1 0x4 DUP1 CALLDATASIZE SUB DUP2 ADD SWAP1 PUSH2 0x2A7 SWAP2 SWAP1 PUSH2 0xA60 JUMP JUMPDEST PUSH2 0x74E JUMP JUMPDEST STOP JUMPDEST PUSH2 0x2C8 PUSH1 0x4 DUP1 CALLDATASIZE SUB DUP2 ADD SWAP1 PUSH2 0x2C3 SWAP2 SWAP1 PUSH2 0x9CA JUMP JUMPDEST PUSH2 0x754 JUMP JUMPDEST STOP JUMPDEST PUSH2 0x2E4 PUSH1 0x4 DUP1 CALLDATASIZE SUB DUP2 ADD SWAP1 PUSH2 0x2DF SWAP2 SWAP1 PUSH2 0x9CA JUMP JUMPDEST PUSH2 0x75C JUMP JUMPDEST STOP JUMPDEST PUSH2 0x300 PUSH1 0x4 DUP1 CALLDATASIZE SUB DUP2 ADD SWAP1 PUSH2 0x2FB SWAP2 SWAP1 PUSH2 0x9CA JUMP JUMPDEST PUSH2 0x764 JUMP JUMPDEST STOP JUMPDEST PUSH2 0x31C PUSH1 0x4 DUP1 CALLDATASIZE SUB DUP2 ADD SWAP1 PUSH2 0x317 SWAP2 SWAP1 PUSH2 0x9CA JUMP JUMPDEST PUSH2 0x76C JUMP JUMPDEST STOP JUMPDEST PUSH2 0x338 PUSH1 0x4 DUP1 CALLDATASIZE SUB DUP2 ADD SWAP1 PUSH2 0x333 SWAP2 SWAP1 PUSH2 0x9CA JUMP JUMPDEST PUSH2 0x774 JUMP JUMPDEST STOP JUMPDEST PUSH2 0x354 PUSH1 0x4 DUP1 CALLDATASIZE SUB DUP2 ADD SWAP1 PUSH2 0x34F SWAP2 SWAP1 PUSH2 0x9CA JUMP JUMPDEST PUSH2 0x77C JUMP JUMPDEST STOP JUMPDEST PUSH2 0x370 PUSH1 0x4 DUP1 CALLDATASIZE SUB DUP2 ADD SWAP1 PUSH2 0x36B SWAP2 SWAP1 PUSH2 0x9CA JUMP JUMPDEST PUSH2 0x784 JUMP JUMPDEST STOP JUMPDEST PUSH2 0x38C PUSH1 0x4 DUP1 CALLDATASIZE SUB DUP2 ADD SWAP1 PUSH2 0x387 SWAP2 SWAP1 PUSH2 0x9CA JUMP JUMPDEST PUSH2 0x78C JUMP JUMPDEST STOP JUMPDEST PUSH2 0x3A8 PUSH1 0x4 DUP1 CALLDATASIZE SUB DUP2 ADD SWAP1 PUSH2 0x3A3 SWAP2 SWAP1 PUSH2 0x9CA JUMP JUMPDEST PUSH2 0x794 JUMP JUMPDEST STOP JUMPDEST PUSH2 0x3C4 PUSH1 0x4 DUP1 CALLDATASIZE SUB DUP2 ADD SWAP1 PUSH2 0x3BF SWAP2 SWAP1 PUSH2 0x9CA JUMP JUMPDEST PUSH2 0x79C JUMP JUMPDEST STOP JUMPDEST PUSH2 0x3E0 PUSH1 0x4 DUP1 CALLDATASIZE SUB DUP2 ADD SWAP1 PUSH2 0x3DB SWAP2 SWAP1 PUSH2 0x9CA JUMP JUMPDEST PUSH2 0x7A4 JUMP JUMPDEST STOP JUMPDEST PUSH2 0x3FC PUSH1 0x4 DUP1 CALLDATASIZE SUB DUP2 ADD SWAP1 PUSH2 0x3F7 SWAP2 SWAP1 PUSH2 0x9CA JUMP JUMPDEST PUSH2 0x7AC JUMP JUMPDEST STOP JUMPDEST PUSH2 0x418 PUSH1 0x4 DUP1 CALLDATASIZE SUB DUP2 ADD SWAP1 PUSH2 0x413 SWAP2 SWAP1 PUSH2 0x9CA JUMP JUMPDEST PUSH2 0x7B4 JUMP JUMPDEST STOP JUMPDEST PUSH2 0x434 PUSH1 0x4 DUP1 CALLDATASIZE SUB DUP2 ADD SWAP1 PUSH2 0x42F SWAP2 SWAP1 PUSH2 0x9CA JUMP JUMPDEST PUSH2 0x7BC JUMP JUMPDEST STOP JUMPDEST PUSH2 0x450 PUSH1 0x4 DUP1 CALLDATASIZE SUB DUP2 ADD SWAP1 PUSH2 0x44B SWAP2 SWAP1 PUSH2 0x9CA JUMP JUMPDEST PUSH2 0x7C4 JUMP JUMPDEST STOP JUMPDEST PUSH2 0x46C PUSH1 0x4 DUP1 CALLDATASIZE SUB DUP2 ADD SWAP1 PUSH2 0x467 SWAP2 SWAP1 PUSH2 0x9CA JUMP JUMPDEST PUSH2 0x7CC JUMP JUMPDEST STOP JUMPDEST PUSH2 0x488 PUSH1 0x4 DUP1 CALLDATASIZE SUB DUP2 ADD SWAP1 PUSH2 0x483 SWAP2 SWAP1 PUSH2 0x9CA JUMP JUMPDEST PUSH2 0x7D4 JUMP JUMPDEST STOP JUMPDEST PUSH2 0x4A4 PUSH1 0x4 DUP1 CALLDATASIZE SUB DUP2 ADD SWAP1 PUSH2 0x49F SWAP2 SWAP1 PUSH2 0x9CA JUMP JUMPDEST PUSH2 0x7DC JUMP JUMPDEST STOP JUMPDEST PUSH2 0x4C0 PUSH1 0x4 DUP1 CALLDATASIZE SUB DUP2 ADD SWAP1 PUSH2 0x4BB SWAP2 SWAP1 PUSH2 0x9CA JUMP JUMPDEST PUSH2 0x7E4 JUMP JUMPDEST STOP JUMPDEST PUSH2 0x4DC PUSH1 0x4 DUP1 CALLDATASIZE SUB DUP2 ADD SWAP1 PUSH2 0x4D7 SWAP2 SWAP1 PUSH2 0x9CA JUMP JUMPDEST PUSH2 0x7EC JUMP JUMPDEST STOP JUMPDEST PUSH2 0x4F8 PUSH1 0x4 DUP1 CALLDATASIZE SUB DUP2 ADD SWAP1 PUSH2 0x4F3 SWAP2 SWAP1 PUSH2 0x9CA JUMP JUMPDEST PUSH2 0x7F4 JUMP JUMPDEST STOP JUMPDEST PUSH2 0x514 PUSH1 0x4 DUP1 CALLDATASIZE SUB DUP2 ADD SWAP1 PUSH2 0x50F SWAP2 SWAP1 PUSH2 0x9CA JUMP JUMPDEST PUSH2 0x7FC JUMP JUMPDEST STOP JUMPDEST PUSH2 0x530 PUSH1 0x4 DUP1 CALLDATASIZE SUB DUP2 ADD SWAP1 PUSH2 0x52B SWAP2 SWAP1 PUSH2 0xA60 JUMP JUMPDEST PUSH2 0x804 JUMP JUMPDEST STOP JUMPDEST PUSH2 0x54C PUSH1 0x4 DUP1 CALLDATASIZE SUB DUP2 ADD SWAP1 PUSH2 0x547 SWAP2 SWAP1 PUSH2 0xA60 JUMP JUMPDEST PUSH2 0x80A JUMP JUMPDEST STOP JUMPDEST PUSH2 0x568 PUSH1 0x4 DUP1 CALLDATASIZE SUB DUP2 ADD SWAP1 PUSH2 0x563 SWAP2 SWAP1 PUSH2 0x9CA JUMP JUMPDEST PUSH2 0x810 JUMP JUMPDEST STOP JUMPDEST PUSH2 0x584 PUSH1 0x4 DUP1 CALLDATASIZE SUB DUP2 ADD SWAP1 PUSH2 0x57F SWAP2 SWAP1 PUSH2 0xA60 JUMP JUMPDEST PUSH2 0x818 JUMP JUMPDEST STOP JUMPDEST PUSH2 0x5A0 PUSH1 0x4 DUP1 CALLDATASIZE SUB DUP2 ADD SWAP1 PUSH2 0x59B SWAP2 SWAP1 PUSH2 0x9CA JUMP JUMPDEST PUSH2 0x81E JUMP JUMPDEST STOP JUMPDEST PUSH2 0x5BC PUSH1 0x4 DUP1 CALLDATASIZE SUB DUP2 ADD SWAP1 PUSH2 0x5B7 SWAP2 SWAP1 PUSH2 0x9CA JUMP JUMPDEST PUSH2 0x826 JUMP JUMPDEST STOP JUMPDEST PUSH2 0x5D8 PUSH1 0x4 DUP1 CALLDATASIZE SUB DUP2 ADD SWAP1 PUSH2 0x5D3 SWAP2 SWAP1 PUSH2 0x9CA JUMP JUMPDEST PUSH2 0x82E JUMP JUMPDEST STOP JUMPDEST PUSH2 0x5F4 PUSH1 0x4 DUP1 CALLDATASIZE SUB DUP2 ADD SWAP1 PUSH2 0x5EF SWAP2 SWAP1 PUSH2 0x9CA JUMP JUMPDEST PUSH2 0x836 JUMP JUMPDEST STOP JUMPDEST PUSH2 0x610 PUSH1 0x4 DUP1 CALLDATASIZE SUB DUP2 ADD SWAP1 PUSH2 0x60B SWAP2 SWAP1 PUSH2 0x9CA JUMP JUMPDEST PUSH2 0x83E JUMP JUMPDEST STOP JUMPDEST PUSH2 0x62C PUSH1 0x4 DUP1 CALLDATASIZE SUB DUP2 ADD SWAP1 PUSH2 0x627 SWAP2 SWAP1 PUSH2 0x9CA JUMP JUMPDEST PUSH2 0x846 JUMP JUMPDEST STOP JUMPDEST PUSH2 0x648 PUSH1 0x4 DUP1 CALLDATASIZE SUB DUP2 ADD SWAP1 PUSH2 0x643 SWAP2 SWAP1 PUSH2 0x9CA JUMP JUMPDEST PUSH2 0x84E JUMP JUMPDEST STOP JUMPDEST PUSH2 0x664 PUSH1 0x4 DUP1 CALLDATASIZE SUB DUP2 ADD SWAP1 PUSH2 0x65F SWAP2 SWAP1 PUSH2 0x9CA JUMP JUMPDEST PUSH2 0x856 JUMP JUMPDEST STOP JUMPDEST PUSH2 0x680 PUSH1 0x4 DUP1 CALLDATASIZE SUB DUP2 ADD SWAP1 PUSH2 0x67B SWAP2 SWAP1 PUSH2 0x9CA JUMP JUMPDEST PUSH2 0x85E JUMP JUMPDEST STOP JUMPDEST PUSH2 0x69C PUSH1 0x4 DUP1 CALLDATASIZE SUB DUP2 ADD SWAP1 PUSH2 0x697 SWAP2 SWAP1 PUSH2 0x9CA JUMP JUMPDEST PUSH2 0x866 JUMP JUMPDEST STOP JUMPDEST PUSH2 0x6B8 PUSH1 0x4 DUP1 CALLDATASIZE SUB DUP2 ADD SWAP1 PUSH2 0x6B3 SWAP2 SWAP1 PUSH2 0x9CA JUMP JUMPDEST PUSH2 0x86E JUMP JUMPDEST STOP JUMPDEST PUSH2 0x6D4 PUSH1 0x4 DUP1 CALLDATASIZE SUB DUP2 ADD SWAP1 PUSH2 0x6CF SWAP2 SWAP1 PUSH2 0x9CA JUMP JUMPDEST PUSH2 0x876 JUMP JUMPDEST STOP JUMPDEST PUSH2 0x6F0 PUSH1 0x4 DUP1 CALLDATASIZE SUB DUP2 ADD SWAP1 PUSH2 0x6EB SWAP2 SWAP1 PUSH2 0x9CA JUMP JUMPDEST PUSH2 0x87E JUMP JUMPDEST STOP JUMPDEST PUSH2 0x70C PUSH1 0x4 DUP1 CALLDATASIZE SUB DUP2 ADD SWAP1 PUSH2 0x707 SWAP2 SWAP1 PUSH2 0x9CA JUMP JUMPDEST PUSH2 0x886 JUMP JUMPDEST STOP JUMPDEST PUSH2 0x728 PUSH1 0x4 DUP1 CALLDATASIZE SUB DUP2 ADD SWAP1 PUSH2 0x723 SWAP2 SWAP1 PUSH2 0x9CA JUMP JUMPDEST PUSH2 0x88E JUMP JUMPDEST STOP JUMPDEST PUSH2 0x744 PUSH1 0x4 DUP1 CALLDATASIZE SUB DUP2 ADD SWAP1 PUSH2 0x73F SWAP2 SWAP1 PUSH2 0x9CA JUMP JUMPDEST PUSH2 0x896 JUMP JUMPDEST STOP JUMPDEST POP POP POP POP POP POP JUMP JUMPDEST POP POP POP POP JUMP JUMPDEST POP POP POP POP POP POP JUMP JUMPDEST POP POP POP POP POP POP JUMP JUMPDEST POP POP POP POP POP POP JUMP JUMPDEST POP POP POP POP POP POP JUMP JUMPDEST POP POP POP POP POP POP JUMP JUMPDEST POP POP POP POP POP POP JUMP JUMPDEST POP POP POP POP POP POP JUMP JUMPDEST POP POP POP POP POP POP JUMP JUMPDEST POP POP POP POP POP POP JUMP JUMPDEST POP POP POP POP POP POP JUMP JUMPDEST POP POP POP POP POP POP JUMP JUMPDEST POP POP POP POP POP POP JUMP JUMPDEST POP POP POP POP POP POP JUMP JUMPDEST POP POP POP POP POP POP JUMP JUMPDEST POP POP POP POP POP POP JUMP JUMPDEST POP POP POP POP POP POP JUMP JUMPDEST POP POP POP POP POP POP JUMP JUMPDEST POP POP POP POP POP POP JUMP JUMPDEST POP POP POP POP POP POP JUMP JUMPDEST POP POP POP POP POP POP JUMP JUMPDEST POP POP POP POP POP POP JUMP JUMPDEST POP POP POP POP POP POP JUMP JUMPDEST POP POP POP POP JUMP JUMPDEST POP POP POP POP JUMP JUMPDEST POP POP POP POP POP POP JUMP JUMPDEST POP POP POP POP JUMP JUMPDEST POP POP POP POP POP POP JUMP JUMPDEST POP POP POP POP POP POP JUMP JUMPDEST POP POP POP POP POP POP JUMP JUMPDEST POP POP POP POP POP POP JUMP JUMPDEST POP POP POP POP POP POP JUMP JUMPDEST POP POP POP POP POP POP JUMP JUMPDEST POP POP POP POP POP POP JUMP JUMPDEST POP POP POP POP POP POP JUMP JUMPDEST POP POP POP POP POP POP JUMP JUMPDEST POP POP POP POP POP POP JUMP JUMPDEST POP POP POP POP POP POP JUMP JUMPDEST POP POP POP POP POP POP JUMP JUMPDEST POP POP POP POP POP POP JUMP JUMPDEST POP POP POP POP POP POP JUMP JUMPDEST POP POP POP POP POP POP JUMP JUMPDEST POP POP POP POP POP POP JUMP JUMPDEST PUSH0 DUP1 REVERT JUMPDEST PUSH0 DUP1 REVERT JUMPDEST PUSH0 PUSH1 0xFF DUP3 AND SWAP1 POP SWAP2 SWAP1 POP JUMP JUMPDEST PUSH2 0x8BB DUP2 PUSH2 0x8A6 JUMP JUMPDEST DUP2 EQ PUSH2 0x8C5 JUMPI PUSH0 DUP1 REVERT JUMPDEST POP JUMP JUMPDEST PUSH0 DUP2 CALLDATALOAD SWAP1 POP PUSH2 0x8D6 DUP2 PUSH2 0x8B2 JUMP JUMPDEST SWAP3 SWAP2 POP POP JUMP JUMPDEST PUSH0 DUP2 SWAP1 POP SWAP2 SWAP1 POP JUMP JUMPDEST PUSH2 0x8EE DUP2 PUSH2 0x8DC JUMP JUMPDEST DUP2 EQ PUSH2 0x8F8 JUMPI PUSH0 DUP1 REVERT JUMPDEST POP JUMP JUMPDEST PUSH0 DUP2 CALLDATALOAD SWAP1 POP PUSH2 0x909 DUP2 PUSH2 0x8E5 JUMP JUMPDEST SWAP3 SWAP2 POP POP JUMP JUMPDEST PUSH0 PUSH20 0xFFFFFFFFFFFFFFFFFFFFFFFFFFFFFFFFFFFFFFFF DUP3 AND SWAP1 POP SWAP2 SWAP1 POP JUMP JUMPDEST PUSH0 PUSH2 0x938 DUP3 PUSH2 0x90F JUMP JUMPDEST SWAP1 POP SWAP2 SWAP1 POP JUMP JUMPDEST PUSH2 0x948 DUP2 PUSH2 0x92E JUMP JUMPDEST DUP2 EQ PUSH2 0x952 JUMPI PUSH0 DUP1 REVERT JUMPDEST POP JUMP JUMPDEST PUSH0 DUP2 CALLDATALOAD SWAP1 POP PUSH2 0x963 DUP2 PUSH2 0x93F JUMP JUMPDEST SWAP3 SWAP2 POP POP JUMP JUMPDEST PUSH0 DUP1 REVERT JUMPDEST PUSH0 DUP1 REVERT JUMPDEST PUSH0 DUP1 REVERT JUMPDEST PUSH0 DUP1 DUP4 PUSH1 0x1F DUP5 ADD SLT PUSH2 0x98A JUMPI PUSH2 0x989 PUSH2 0x969 JUMP JUMPDEST JUMPDEST DUP3 CALLDATALOAD SWAP1 POP PUSH8 0xFFFFFFFFFFFFFFFF DUP2 GT ISZERO PUSH2 0x9A7 JUMPI PUSH2 0x9A6 PUSH2 0x96D JUMP JUMPDEST JUMPDEST PUSH1 0x20 DUP4 ADD SWAP2 POP DUP4 PUSH1 0x1 DUP3 MUL DUP4 ADD GT ISZERO PUSH2 0x9C3 JUMPI PUSH2 0x9C2 PUSH2 0x971 JUMP JUMPDEST JUMPDEST SWAP3 POP SWAP3 SWAP1 POP JUMP JUMPDEST PUSH0 DUP1 PUSH0 DUP1 PUSH0 DUP1 PUSH1 0xA0 DUP8 DUP10 SUB SLT ISZERO PUSH2 0x9E4 JUMPI PUSH2 0x9E3 PUSH2 0x89E JUMP JUMPDEST JUMPDEST PUSH0 PUSH2 0x9F1 DUP10 DUP3 DUP11 ADD PUSH2 0x8C8 JUMP JUMPDEST SWAP7 POP POP PUSH1 0x20 PUSH2 0xA02 DUP10 DUP3 DUP11 ADD PUSH2 0x8FB JUMP JUMPDEST SWAP6 POP POP PUSH1 0x40 PUSH2 0xA13 DUP10 DUP3 DUP11 ADD PUSH2 0x8FB JUMP JUMPDEST SWAP5 POP POP PUSH1 0x60 PUSH2 0xA24 DUP10 DUP3 DUP11 ADD PUSH2 0x955 JUMP JUMPDEST SWAP4 POP POP PUSH1 0x80 DUP8 ADD CALLDATALOAD PUSH8 0xFFFFFFFFFFFFFFFF DUP2 GT ISZERO PUSH2 0xA45 JUMPI PUSH2 0xA44 PUSH2 0x8A2 JUMP JUMPDEST JUMPDEST PUSH2 0xA51 DUP10 DUP3 DUP11 ADD PUSH2 0x975 JUMP JUMPDEST SWAP3 POP SWAP3 POP POP SWAP3 SWAP6 POP SWAP3 SWAP6 POP SWAP3 SWAP6 JUMP JUMPDEST PUSH0 DUP1 PUSH0 DUP1 PUSH1 0x80 DUP6 DUP8 SUB SLT ISZERO PUSH2 0xA78 JUMPI PUSH2 0xA77 PUSH2 0x89E JUMP JUMPDEST JUMPDEST PUSH0 PUSH2 0xA85 DUP8 DUP3 DUP9 ADD PUSH2 0x8C8 JUMP JUMPDEST SWAP5 POP POP PUSH1 0x20 PUSH2 0xA96 DUP8 DUP3 DUP9 ADD PUSH2 0x8FB JUMP JUMPDEST SWAP4 POP POP PUSH1 0x40 PUSH2 0xAA7 DUP8 DUP3 DUP9 ADD PUSH2 0x8FB JUMP JUMPDEST SWAP3 POP POP PUSH1 0x60 PUSH2 0xAB8 DUP8 DUP3 DUP9 ADD PUSH2 0x955 JUMP JUMPDEST SWAP2 POP POP SWAP3 SWAP6 SWAP2 SWAP5 POP SWAP3 POP JUMP INVALID LOG2 PUSH5 0x6970667358 0x22 SLT KECCAK256 0xBC ADDMOD 0xCD OR LOG4 PUSH20 0xA63F27637EBC3F1D8F741DEDFD3A237CDEFDBD0C 0xAF ADD MSTORE8 DUP11 0xE2 AND PUSH5 0x736F6C6343 STOP ADDMOD NOT STOP CALLER "
		},
		"gasEstimates": {
			"creation": {
				"codeDepositCost": "562000",
				"executionCost": "592",
				"totalCost": "562592"
			},
			"external": {
				"activate(uint8,bytes32,bytes32,address)": "infinite",
				"addToCustodyCustodians(uint8,bytes32,bytes32,address,string)": "infinite",
				"addToCustodyWhiteList(uint8,bytes32,bytes32,address,string)": "infinite",
				"approveCustodyTransaction(uint8,bytes32,bytes32,address,string)": "infinite",
				"assignRole(uint8,bytes32,bytes32,address,string)": "infinite",
				"blacklistPermissions(uint8,bytes32,bytes32,address,string)": "infinite",
				"blacklistRolePermission(uint8,bytes32,bytes32,address,string)": "infinite",
				"cancelIdentityRecordsVerifyRequest(uint8,bytes32,bytes32,address,string)": "infinite",
				"claimCouncilor(uint8,bytes32,bytes32,address,string)": "infinite",
				"claimRewards(uint8,bytes32,bytes32,address,string)": "infinite",
				"claimSpendingPool(uint8,bytes32,bytes32,address,string)": "infinite",
				"claimUndelegation(uint8,bytes32,bytes32,address,string)": "infinite",
				"createCustody(uint8,bytes32,bytes32,address,string)": "infinite",
				"createRole(uint8,bytes32,bytes32,address,string)": "infinite",
				"createSpendingPool(uint8,bytes32,bytes32,address,string)": "infinite",
				"declineCustodyTransaction(uint8,bytes32,bytes32,address,string)": "infinite",
				"delegate(uint8,bytes32,bytes32,address,string)": "infinite",
				"deleteIdentityRecords(uint8,bytes32,bytes32,address,string)": "infinite",
				"depositSpendingPool(uint8,bytes32,bytes32,address,string)": "infinite",
				"dropCustodyCustodians(uint8,bytes32,bytes32,address,string)": "infinite",
				"dropCustodyWhiteList(uint8,bytes32,bytes32,address,string)": "infinite",
				"handleIdentityRecordsVerifyRequest(uint8,bytes32,bytes32,address,string)": "infinite",
				"pause(uint8,bytes32,bytes32,address)": "infinite",
				"registerDelegator(uint8,bytes32,bytes32,address)": "infinite",
				"registerIdentityRecords(uint8,bytes32,bytes32,address,string)": "infinite",
				"registerSpendingPoolBeneficiary(uint8,bytes32,bytes32,address,string)": "infinite",
				"removeBlacklistRolePermission(uint8,bytes32,bytes32,address,string)": "infinite",
				"removeFromCustodyCustodians(uint8,bytes32,bytes32,address,string)": "infinite",
				"removeFromCustodyWhiteList(uint8,bytes32,bytes32,address,string)": "infinite",
				"removeWhitelistRolePermission(uint8,bytes32,bytes32,address,string)": "infinite",
				"requestIdentityRecordsVerify(uint8,bytes32,bytes32,address,string)": "infinite",
				"setCompoundInfo(uint8,bytes32,bytes32,address,string)": "infinite",
				"setExecutionFee(uint8,bytes32,bytes32,address,string)": "infinite",
				"setNetworkProperties(uint8,bytes32,bytes32,address,string)": "infinite",
				"submitEvidence(uint8,bytes32,bytes32,address,string)": "infinite",
				"unassignRole(uint8,bytes32,bytes32,address,string)": "infinite",
				"undelegate(uint8,bytes32,bytes32,address,string)": "infinite",
				"unpause(uint8,bytes32,bytes32,address)": "infinite",
				"upsertStakingPool(uint8,bytes32,bytes32,address,string)": "infinite",
				"upsertTokenAlias(uint8,bytes32,bytes32,address,string)": "infinite",
				"upsertTokenRate(uint8,bytes32,bytes32,address,string)": "infinite",
				"voteProposal(uint8,bytes32,bytes32,address,string)": "infinite",
				"whitelistPermissions(uint8,bytes32,bytes32,address,string)": "infinite",
				"whitelistRolePermission(uint8,bytes32,bytes32,address,string)": "infinite"
			}
		},
		"methodIdentifiers": {
			"activate(uint8,bytes32,bytes32,address)": "a1374dc2",
			"addToCustodyCustodians(uint8,bytes32,bytes32,address,string)": "8c7fdb91",
			"addToCustodyWhiteList(uint8,bytes32,bytes32,address,string)": "25a1d834",
			"approveCustodyTransaction(uint8,bytes32,bytes32,address,string)": "5da292d4",
			"assignRole(uint8,bytes32,bytes32,address,string)": "fcc121b5",
			"blacklistPermissions(uint8,bytes32,bytes32,address,string)": "3864f845",
			"blacklistRolePermission(uint8,bytes32,bytes32,address,string)": "99c557da",
			"cancelIdentityRecordsVerifyRequest(uint8,bytes32,bytes32,address,string)": "eeaa0488",
			"claimCouncilor(uint8,bytes32,bytes32,address,string)": "b7b8ff46",
			"claimRewards(uint8,bytes32,bytes32,address,string)": "9838bc2f",
			"claimSpendingPool(uint8,bytes32,bytes32,address,string)": "efeed4a0",
			"claimUndelegation(uint8,bytes32,bytes32,address,string)": "2f608d76",
			"createCustody(uint8,bytes32,bytes32,address,string)": "bebde6d1",
			"createRole(uint8,bytes32,bytes32,address,string)": "2d8abfdf",
			"createSpendingPool(uint8,bytes32,bytes32,address,string)": "4ed8a0a2",
			"declineCustodyTransaction(uint8,bytes32,bytes32,address,string)": "dce4399a",
			"delegate(uint8,bytes32,bytes32,address,string)": "4b193c09",
			"deleteIdentityRecords(uint8,bytes32,bytes32,address,string)": "2dbad8e8",
			"depositSpendingPool(uint8,bytes32,bytes32,address,string)": "e10c925c",
			"dropCustodyCustodians(uint8,bytes32,bytes32,address,string)": "0ca697b4",
			"dropCustodyWhiteList(uint8,bytes32,bytes32,address,string)": "bc65010a",
			"handleIdentityRecordsVerifyRequest(uint8,bytes32,bytes32,address,string)": "4335ed0c",
			"pause(uint8,bytes32,bytes32,address)": "1371cf19",
			"registerDelegator(uint8,bytes32,bytes32,address)": "99db185d",
			"registerIdentityRecords(uint8,bytes32,bytes32,address,string)": "bc05f106",
			"registerSpendingPoolBeneficiary(uint8,bytes32,bytes32,address,string)": "7ab7eecf",
			"removeBlacklistRolePermission(uint8,bytes32,bytes32,address,string)": "f5f865e4",
			"removeFromCustodyCustodians(uint8,bytes32,bytes32,address,string)": "90be51cf",
			"removeFromCustodyWhiteList(uint8,bytes32,bytes32,address,string)": "fa431c3e",
			"removeWhitelistRolePermission(uint8,bytes32,bytes32,address,string)": "2a11d702",
			"requestIdentityRecordsVerify(uint8,bytes32,bytes32,address,string)": "9765358e",
			"setCompoundInfo(uint8,bytes32,bytes32,address,string)": "e2d6a093",
			"setExecutionFee(uint8,bytes32,bytes32,address,string)": "c7586de8",
			"setNetworkProperties(uint8,bytes32,bytes32,address,string)": "f8060fb5",
			"submitEvidence(uint8,bytes32,bytes32,address,string)": "85db2453",
			"unassignRole(uint8,bytes32,bytes32,address,string)": "c79ca19d",
			"undelegate(uint8,bytes32,bytes32,address,string)": "94574f0c",
			"unpause(uint8,bytes32,bytes32,address)": "b9179894",
			"upsertStakingPool(uint8,bytes32,bytes32,address,string)": "fb24f5cc",
			"upsertTokenAlias(uint8,bytes32,bytes32,address,string)": "f69a4787",
			"upsertTokenRate(uint8,bytes32,bytes32,address,string)": "3b30a97a",
			"voteProposal(uint8,bytes32,bytes32,address,string)": "7f1f06dc",
			"whitelistPermissions(uint8,bytes32,bytes32,address,string)": "2f313ab8",
			"whitelistRolePermission(uint8,bytes32,bytes32,address,string)": "59472362"
		}
	},
	"abi": [
		{
			"inputs": [
				{
					"internalType": "uint8",
					"name": "v",
					"type": "uint8"
				},
				{
					"internalType": "bytes32",
					"name": "r",
					"type": "bytes32"
				},
				{
					"internalType": "bytes32",
					"name": "s",
					"type": "bytes32"
				},
				{
					"internalType": "address",
					"name": "sender",
					"type": "address"
				}
			],
			"name": "activate",
			"outputs": [],
			"stateMutability": "nonpayable",
			"type": "function"
		},
		{
			"inputs": [
				{
					"internalType": "uint8",
					"name": "v",
					"type": "uint8"
				},
				{
					"internalType": "bytes32",
					"name": "r",
					"type": "bytes32"
				},
				{
					"internalType": "bytes32",
					"name": "s",
					"type": "bytes32"
				},
				{
					"internalType": "address",
					"name": "sender",
					"type": "address"
				},
				{
					"internalType": "string",
					"name": "param",
					"type": "string"
				}
			],
			"name": "addToCustodyCustodians",
			"outputs": [],
			"stateMutability": "nonpayable",
			"type": "function"
		},
		{
			"inputs": [
				{
					"internalType": "uint8",
					"name": "v",
					"type": "uint8"
				},
				{
					"internalType": "bytes32",
					"name": "r",
					"type": "bytes32"
				},
				{
					"internalType": "bytes32",
					"name": "s",
					"type": "bytes32"
				},
				{
					"internalType": "address",
					"name": "sender",
					"type": "address"
				},
				{
					"internalType": "string",
					"name": "param",
					"type": "string"
				}
			],
			"name": "addToCustodyWhiteList",
			"outputs": [],
			"stateMutability": "nonpayable",
			"type": "function"
		},
		{
			"inputs": [
				{
					"internalType": "uint8",
					"name": "v",
					"type": "uint8"
				},
				{
					"internalType": "bytes32",
					"name": "r",
					"type": "bytes32"
				},
				{
					"internalType": "bytes32",
					"name": "s",
					"type": "bytes32"
				},
				{
					"internalType": "address",
					"name": "sender",
					"type": "address"
				},
				{
					"internalType": "string",
					"name": "param",
					"type": "string"
				}
			],
			"name": "approveCustodyTransaction",
			"outputs": [],
			"stateMutability": "nonpayable",
			"type": "function"
		},
		{
			"inputs": [
				{
					"internalType": "uint8",
					"name": "v",
					"type": "uint8"
				},
				{
					"internalType": "bytes32",
					"name": "r",
					"type": "bytes32"
				},
				{
					"internalType": "bytes32",
					"name": "s",
					"type": "bytes32"
				},
				{
					"internalType": "address",
					"name": "sender",
					"type": "address"
				},
				{
					"internalType": "string",
					"name": "param",
					"type": "string"
				}
			],
			"name": "assignRole",
			"outputs": [],
			"stateMutability": "nonpayable",
			"type": "function"
		},
		{
			"inputs": [
				{
					"internalType": "uint8",
					"name": "v",
					"type": "uint8"
				},
				{
					"internalType": "bytes32",
					"name": "r",
					"type": "bytes32"
				},
				{
					"internalType": "bytes32",
					"name": "s",
					"type": "bytes32"
				},
				{
					"internalType": "address",
					"name": "sender",
					"type": "address"
				},
				{
					"internalType": "string",
					"name": "param",
					"type": "string"
				}
			],
			"name": "blacklistPermissions",
			"outputs": [],
			"stateMutability": "nonpayable",
			"type": "function"
		},
		{
			"inputs": [
				{
					"internalType": "uint8",
					"name": "v",
					"type": "uint8"
				},
				{
					"internalType": "bytes32",
					"name": "r",
					"type": "bytes32"
				},
				{
					"internalType": "bytes32",
					"name": "s",
					"type": "bytes32"
				},
				{
					"internalType": "address",
					"name": "sender",
					"type": "address"
				},
				{
					"internalType": "string",
					"name": "param",
					"type": "string"
				}
			],
			"name": "blacklistRolePermission",
			"outputs": [],
			"stateMutability": "nonpayable",
			"type": "function"
		},
		{
			"inputs": [
				{
					"internalType": "uint8",
					"name": "v",
					"type": "uint8"
				},
				{
					"internalType": "bytes32",
					"name": "r",
					"type": "bytes32"
				},
				{
					"internalType": "bytes32",
					"name": "s",
					"type": "bytes32"
				},
				{
					"internalType": "address",
					"name": "sender",
					"type": "address"
				},
				{
					"internalType": "string",
					"name": "param",
					"type": "string"
				}
			],
			"name": "cancelIdentityRecordsVerifyRequest",
			"outputs": [],
			"stateMutability": "nonpayable",
			"type": "function"
		},
		{
			"inputs": [
				{
					"internalType": "uint8",
					"name": "v",
					"type": "uint8"
				},
				{
					"internalType": "bytes32",
					"name": "r",
					"type": "bytes32"
				},
				{
					"internalType": "bytes32",
					"name": "s",
					"type": "bytes32"
				},
				{
					"internalType": "address",
					"name": "sender",
					"type": "address"
				},
				{
					"internalType": "string",
					"name": "param",
					"type": "string"
				}
			],
			"name": "claimCouncilor",
			"outputs": [],
			"stateMutability": "nonpayable",
			"type": "function"
		},
		{
			"inputs": [
				{
					"internalType": "uint8",
					"name": "v",
					"type": "uint8"
				},
				{
					"internalType": "bytes32",
					"name": "r",
					"type": "bytes32"
				},
				{
					"internalType": "bytes32",
					"name": "s",
					"type": "bytes32"
				},
				{
					"internalType": "address",
					"name": "sender",
					"type": "address"
				},
				{
					"internalType": "string",
					"name": "param",
					"type": "string"
				}
			],
			"name": "claimRewards",
			"outputs": [],
			"stateMutability": "nonpayable",
			"type": "function"
		},
		{
			"inputs": [
				{
					"internalType": "uint8",
					"name": "v",
					"type": "uint8"
				},
				{
					"internalType": "bytes32",
					"name": "r",
					"type": "bytes32"
				},
				{
					"internalType": "bytes32",
					"name": "s",
					"type": "bytes32"
				},
				{
					"internalType": "address",
					"name": "sender",
					"type": "address"
				},
				{
					"internalType": "string",
					"name": "param",
					"type": "string"
				}
			],
			"name": "claimSpendingPool",
			"outputs": [],
			"stateMutability": "nonpayable",
			"type": "function"
		},
		{
			"inputs": [
				{
					"internalType": "uint8",
					"name": "v",
					"type": "uint8"
				},
				{
					"internalType": "bytes32",
					"name": "r",
					"type": "bytes32"
				},
				{
					"internalType": "bytes32",
					"name": "s",
					"type": "bytes32"
				},
				{
					"internalType": "address",
					"name": "sender",
					"type": "address"
				},
				{
					"internalType": "string",
					"name": "param",
					"type": "string"
				}
			],
			"name": "claimUndelegation",
			"outputs": [],
			"stateMutability": "nonpayable",
			"type": "function"
		},
		{
			"inputs": [
				{
					"internalType": "uint8",
					"name": "v",
					"type": "uint8"
				},
				{
					"internalType": "bytes32",
					"name": "r",
					"type": "bytes32"
				},
				{
					"internalType": "bytes32",
					"name": "s",
					"type": "bytes32"
				},
				{
					"internalType": "address",
					"name": "sender",
					"type": "address"
				},
				{
					"internalType": "string",
					"name": "param",
					"type": "string"
				}
			],
			"name": "createCustody",
			"outputs": [],
			"stateMutability": "nonpayable",
			"type": "function"
		},
		{
			"inputs": [
				{
					"internalType": "uint8",
					"name": "v",
					"type": "uint8"
				},
				{
					"internalType": "bytes32",
					"name": "r",
					"type": "bytes32"
				},
				{
					"internalType": "bytes32",
					"name": "s",
					"type": "bytes32"
				},
				{
					"internalType": "address",
					"name": "sender",
					"type": "address"
				},
				{
					"internalType": "string",
					"name": "param",
					"type": "string"
				}
			],
			"name": "createRole",
			"outputs": [],
			"stateMutability": "nonpayable",
			"type": "function"
		},
		{
			"inputs": [
				{
					"internalType": "uint8",
					"name": "v",
					"type": "uint8"
				},
				{
					"internalType": "bytes32",
					"name": "r",
					"type": "bytes32"
				},
				{
					"internalType": "bytes32",
					"name": "s",
					"type": "bytes32"
				},
				{
					"internalType": "address",
					"name": "sender",
					"type": "address"
				},
				{
					"internalType": "string",
					"name": "param",
					"type": "string"
				}
			],
			"name": "createSpendingPool",
			"outputs": [],
			"stateMutability": "nonpayable",
			"type": "function"
		},
		{
			"inputs": [
				{
					"internalType": "uint8",
					"name": "v",
					"type": "uint8"
				},
				{
					"internalType": "bytes32",
					"name": "r",
					"type": "bytes32"
				},
				{
					"internalType": "bytes32",
					"name": "s",
					"type": "bytes32"
				},
				{
					"internalType": "address",
					"name": "sender",
					"type": "address"
				},
				{
					"internalType": "string",
					"name": "param",
					"type": "string"
				}
			],
			"name": "declineCustodyTransaction",
			"outputs": [],
			"stateMutability": "nonpayable",
			"type": "function"
		},
		{
			"inputs": [
				{
					"internalType": "uint8",
					"name": "v",
					"type": "uint8"
				},
				{
					"internalType": "bytes32",
					"name": "r",
					"type": "bytes32"
				},
				{
					"internalType": "bytes32",
					"name": "s",
					"type": "bytes32"
				},
				{
					"internalType": "address",
					"name": "sender",
					"type": "address"
				},
				{
					"internalType": "string",
					"name": "param",
					"type": "string"
				}
			],
			"name": "delegate",
			"outputs": [],
			"stateMutability": "nonpayable",
			"type": "function"
		},
		{
			"inputs": [
				{
					"internalType": "uint8",
					"name": "v",
					"type": "uint8"
				},
				{
					"internalType": "bytes32",
					"name": "r",
					"type": "bytes32"
				},
				{
					"internalType": "bytes32",
					"name": "s",
					"type": "bytes32"
				},
				{
					"internalType": "address",
					"name": "sender",
					"type": "address"
				},
				{
					"internalType": "string",
					"name": "param",
					"type": "string"
				}
			],
			"name": "deleteIdentityRecords",
			"outputs": [],
			"stateMutability": "nonpayable",
			"type": "function"
		},
		{
			"inputs": [
				{
					"internalType": "uint8",
					"name": "v",
					"type": "uint8"
				},
				{
					"internalType": "bytes32",
					"name": "r",
					"type": "bytes32"
				},
				{
					"internalType": "bytes32",
					"name": "s",
					"type": "bytes32"
				},
				{
					"internalType": "address",
					"name": "sender",
					"type": "address"
				},
				{
					"internalType": "string",
					"name": "param",
					"type": "string"
				}
			],
			"name": "depositSpendingPool",
			"outputs": [],
			"stateMutability": "nonpayable",
			"type": "function"
		},
		{
			"inputs": [
				{
					"internalType": "uint8",
					"name": "v",
					"type": "uint8"
				},
				{
					"internalType": "bytes32",
					"name": "r",
					"type": "bytes32"
				},
				{
					"internalType": "bytes32",
					"name": "s",
					"type": "bytes32"
				},
				{
					"internalType": "address",
					"name": "sender",
					"type": "address"
				},
				{
					"internalType": "string",
					"name": "param",
					"type": "string"
				}
			],
			"name": "dropCustodyCustodians",
			"outputs": [],
			"stateMutability": "nonpayable",
			"type": "function"
		},
		{
			"inputs": [
				{
					"internalType": "uint8",
					"name": "v",
					"type": "uint8"
				},
				{
					"internalType": "bytes32",
					"name": "r",
					"type": "bytes32"
				},
				{
					"internalType": "bytes32",
					"name": "s",
					"type": "bytes32"
				},
				{
					"internalType": "address",
					"name": "sender",
					"type": "address"
				},
				{
					"internalType": "string",
					"name": "param",
					"type": "string"
				}
			],
			"name": "dropCustodyWhiteList",
			"outputs": [],
			"stateMutability": "nonpayable",
			"type": "function"
		},
		{
			"inputs": [
				{
					"internalType": "uint8",
					"name": "v",
					"type": "uint8"
				},
				{
					"internalType": "bytes32",
					"name": "r",
					"type": "bytes32"
				},
				{
					"internalType": "bytes32",
					"name": "s",
					"type": "bytes32"
				},
				{
					"internalType": "address",
					"name": "sender",
					"type": "address"
				},
				{
					"internalType": "string",
					"name": "param",
					"type": "string"
				}
			],
			"name": "handleIdentityRecordsVerifyRequest",
			"outputs": [],
			"stateMutability": "nonpayable",
			"type": "function"
		},
		{
			"inputs": [
				{
					"internalType": "uint8",
					"name": "v",
					"type": "uint8"
				},
				{
					"internalType": "bytes32",
					"name": "r",
					"type": "bytes32"
				},
				{
					"internalType": "bytes32",
					"name": "s",
					"type": "bytes32"
				},
				{
					"internalType": "address",
					"name": "sender",
					"type": "address"
				}
			],
			"name": "pause",
			"outputs": [],
			"stateMutability": "nonpayable",
			"type": "function"
		},
		{
			"inputs": [
				{
					"internalType": "uint8",
					"name": "v",
					"type": "uint8"
				},
				{
					"internalType": "bytes32",
					"name": "r",
					"type": "bytes32"
				},
				{
					"internalType": "bytes32",
					"name": "s",
					"type": "bytes32"
				},
				{
					"internalType": "address",
					"name": "sender",
					"type": "address"
				}
			],
			"name": "registerDelegator",
			"outputs": [],
			"stateMutability": "nonpayable",
			"type": "function"
		},
		{
			"inputs": [
				{
					"internalType": "uint8",
					"name": "v",
					"type": "uint8"
				},
				{
					"internalType": "bytes32",
					"name": "r",
					"type": "bytes32"
				},
				{
					"internalType": "bytes32",
					"name": "s",
					"type": "bytes32"
				},
				{
					"internalType": "address",
					"name": "sender",
					"type": "address"
				},
				{
					"internalType": "string",
					"name": "param",
					"type": "string"
				}
			],
			"name": "registerIdentityRecords",
			"outputs": [],
			"stateMutability": "nonpayable",
			"type": "function"
		},
		{
			"inputs": [
				{
					"internalType": "uint8",
					"name": "v",
					"type": "uint8"
				},
				{
					"internalType": "bytes32",
					"name": "r",
					"type": "bytes32"
				},
				{
					"internalType": "bytes32",
					"name": "s",
					"type": "bytes32"
				},
				{
					"internalType": "address",
					"name": "sender",
					"type": "address"
				},
				{
					"internalType": "string",
					"name": "param",
					"type": "string"
				}
			],
			"name": "registerSpendingPoolBeneficiary",
			"outputs": [],
			"stateMutability": "nonpayable",
			"type": "function"
		},
		{
			"inputs": [
				{
					"internalType": "uint8",
					"name": "v",
					"type": "uint8"
				},
				{
					"internalType": "bytes32",
					"name": "r",
					"type": "bytes32"
				},
				{
					"internalType": "bytes32",
					"name": "s",
					"type": "bytes32"
				},
				{
					"internalType": "address",
					"name": "sender",
					"type": "address"
				},
				{
					"internalType": "string",
					"name": "param",
					"type": "string"
				}
			],
			"name": "removeBlacklistRolePermission",
			"outputs": [],
			"stateMutability": "nonpayable",
			"type": "function"
		},
		{
			"inputs": [
				{
					"internalType": "uint8",
					"name": "v",
					"type": "uint8"
				},
				{
					"internalType": "bytes32",
					"name": "r",
					"type": "bytes32"
				},
				{
					"internalType": "bytes32",
					"name": "s",
					"type": "bytes32"
				},
				{
					"internalType": "address",
					"name": "sender",
					"type": "address"
				},
				{
					"internalType": "string",
					"name": "param",
					"type": "string"
				}
			],
			"name": "removeFromCustodyCustodians",
			"outputs": [],
			"stateMutability": "nonpayable",
			"type": "function"
		},
		{
			"inputs": [
				{
					"internalType": "uint8",
					"name": "v",
					"type": "uint8"
				},
				{
					"internalType": "bytes32",
					"name": "r",
					"type": "bytes32"
				},
				{
					"internalType": "bytes32",
					"name": "s",
					"type": "bytes32"
				},
				{
					"internalType": "address",
					"name": "sender",
					"type": "address"
				},
				{
					"internalType": "string",
					"name": "param",
					"type": "string"
				}
			],
			"name": "removeFromCustodyWhiteList",
			"outputs": [],
			"stateMutability": "nonpayable",
			"type": "function"
		},
		{
			"inputs": [
				{
					"internalType": "uint8",
					"name": "v",
					"type": "uint8"
				},
				{
					"internalType": "bytes32",
					"name": "r",
					"type": "bytes32"
				},
				{
					"internalType": "bytes32",
					"name": "s",
					"type": "bytes32"
				},
				{
					"internalType": "address",
					"name": "sender",
					"type": "address"
				},
				{
					"internalType": "string",
					"name": "param",
					"type": "string"
				}
			],
			"name": "removeWhitelistRolePermission",
			"outputs": [],
			"stateMutability": "nonpayable",
			"type": "function"
		},
		{
			"inputs": [
				{
					"internalType": "uint8",
					"name": "v",
					"type": "uint8"
				},
				{
					"internalType": "bytes32",
					"name": "r",
					"type": "bytes32"
				},
				{
					"internalType": "bytes32",
					"name": "s",
					"type": "bytes32"
				},
				{
					"internalType": "address",
					"name": "sender",
					"type": "address"
				},
				{
					"internalType": "string",
					"name": "param",
					"type": "string"
				}
			],
			"name": "requestIdentityRecordsVerify",
			"outputs": [],
			"stateMutability": "nonpayable",
			"type": "function"
		},
		{
			"inputs": [
				{
					"internalType": "uint8",
					"name": "v",
					"type": "uint8"
				},
				{
					"internalType": "bytes32",
					"name": "r",
					"type": "bytes32"
				},
				{
					"internalType": "bytes32",
					"name": "s",
					"type": "bytes32"
				},
				{
					"internalType": "address",
					"name": "sender",
					"type": "address"
				},
				{
					"internalType": "string",
					"name": "param",
					"type": "string"
				}
			],
			"name": "setCompoundInfo",
			"outputs": [],
			"stateMutability": "nonpayable",
			"type": "function"
		},
		{
			"inputs": [
				{
					"internalType": "uint8",
					"name": "v",
					"type": "uint8"
				},
				{
					"internalType": "bytes32",
					"name": "r",
					"type": "bytes32"
				},
				{
					"internalType": "bytes32",
					"name": "s",
					"type": "bytes32"
				},
				{
					"internalType": "address",
					"name": "sender",
					"type": "address"
				},
				{
					"internalType": "string",
					"name": "param",
					"type": "string"
				}
			],
			"name": "setExecutionFee",
			"outputs": [],
			"stateMutability": "nonpayable",
			"type": "function"
		},
		{
			"inputs": [
				{
					"internalType": "uint8",
					"name": "v",
					"type": "uint8"
				},
				{
					"internalType": "bytes32",
					"name": "r",
					"type": "bytes32"
				},
				{
					"internalType": "bytes32",
					"name": "s",
					"type": "bytes32"
				},
				{
					"internalType": "address",
					"name": "sender",
					"type": "address"
				},
				{
					"internalType": "string",
					"name": "param",
					"type": "string"
				}
			],
			"name": "setNetworkProperties",
			"outputs": [],
			"stateMutability": "nonpayable",
			"type": "function"
		},
		{
			"inputs": [
				{
					"internalType": "uint8",
					"name": "v",
					"type": "uint8"
				},
				{
					"internalType": "bytes32",
					"name": "r",
					"type": "bytes32"
				},
				{
					"internalType": "bytes32",
					"name": "s",
					"type": "bytes32"
				},
				{
					"internalType": "address",
					"name": "sender",
					"type": "address"
				},
				{
					"internalType": "string",
					"name": "param",
					"type": "string"
				}
			],
			"name": "submitEvidence",
			"outputs": [],
			"stateMutability": "nonpayable",
			"type": "function"
		},
		{
			"inputs": [
				{
					"internalType": "uint8",
					"name": "v",
					"type": "uint8"
				},
				{
					"internalType": "bytes32",
					"name": "r",
					"type": "bytes32"
				},
				{
					"internalType": "bytes32",
					"name": "s",
					"type": "bytes32"
				},
				{
					"internalType": "address",
					"name": "sender",
					"type": "address"
				},
				{
					"internalType": "string",
					"name": "param",
					"type": "string"
				}
			],
			"name": "unassignRole",
			"outputs": [],
			"stateMutability": "nonpayable",
			"type": "function"
		},
		{
			"inputs": [
				{
					"internalType": "uint8",
					"name": "v",
					"type": "uint8"
				},
				{
					"internalType": "bytes32",
					"name": "r",
					"type": "bytes32"
				},
				{
					"internalType": "bytes32",
					"name": "s",
					"type": "bytes32"
				},
				{
					"internalType": "address",
					"name": "sender",
					"type": "address"
				},
				{
					"internalType": "string",
					"name": "param",
					"type": "string"
				}
			],
			"name": "undelegate",
			"outputs": [],
			"stateMutability": "nonpayable",
			"type": "function"
		},
		{
			"inputs": [
				{
					"internalType": "uint8",
					"name": "v",
					"type": "uint8"
				},
				{
					"internalType": "bytes32",
					"name": "r",
					"type": "bytes32"
				},
				{
					"internalType": "bytes32",
					"name": "s",
					"type": "bytes32"
				},
				{
					"internalType": "address",
					"name": "sender",
					"type": "address"
				}
			],
			"name": "unpause",
			"outputs": [],
			"stateMutability": "nonpayable",
			"type": "function"
		},
		{
			"inputs": [
				{
					"internalType": "uint8",
					"name": "v",
					"type": "uint8"
				},
				{
					"internalType": "bytes32",
					"name": "r",
					"type": "bytes32"
				},
				{
					"internalType": "bytes32",
					"name": "s",
					"type": "bytes32"
				},
				{
					"internalType": "address",
					"name": "sender",
					"type": "address"
				},
				{
					"internalType": "string",
					"name": "param",
					"type": "string"
				}
			],
			"name": "upsertStakingPool",
			"outputs": [],
			"stateMutability": "nonpayable",
			"type": "function"
		},
		{
			"inputs": [
				{
					"internalType": "uint8",
					"name": "v",
					"type": "uint8"
				},
				{
					"internalType": "bytes32",
					"name": "r",
					"type": "bytes32"
				},
				{
					"internalType": "bytes32",
					"name": "s",
					"type": "bytes32"
				},
				{
					"internalType": "address",
					"name": "sender",
					"type": "address"
				},
				{
					"internalType": "string",
					"name": "param",
					"type": "string"
				}
			],
			"name": "upsertTokenAlias",
			"outputs": [],
			"stateMutability": "nonpayable",
			"type": "function"
		},
		{
			"inputs": [
				{
					"internalType": "uint8",
					"name": "v",
					"type": "uint8"
				},
				{
					"internalType": "bytes32",
					"name": "r",
					"type": "bytes32"
				},
				{
					"internalType": "bytes32",
					"name": "s",
					"type": "bytes32"
				},
				{
					"internalType": "address",
					"name": "sender",
					"type": "address"
				},
				{
					"internalType": "string",
					"name": "param",
					"type": "string"
				}
			],
			"name": "upsertTokenRate",
			"outputs": [],
			"stateMutability": "nonpayable",
			"type": "function"
		},
		{
			"inputs": [
				{
					"internalType": "uint8",
					"name": "v",
					"type": "uint8"
				},
				{
					"internalType": "bytes32",
					"name": "r",
					"type": "bytes32"
				},
				{
					"internalType": "bytes32",
					"name": "s",
					"type": "bytes32"
				},
				{
					"internalType": "address",
					"name": "sender",
					"type": "address"
				},
				{
					"internalType": "string",
					"name": "param",
					"type": "string"
				}
			],
			"name": "voteProposal",
			"outputs": [],
			"stateMutability": "nonpayable",
			"type": "function"
		},
		{
			"inputs": [
				{
					"internalType": "uint8",
					"name": "v",
					"type": "uint8"
				},
				{
					"internalType": "bytes32",
					"name": "r",
					"type": "bytes32"
				},
				{
					"internalType": "bytes32",
					"name": "s",
					"type": "bytes32"
				},
				{
					"internalType": "address",
					"name": "sender",
					"type": "address"
				},
				{
					"internalType": "string",
					"name": "param",
					"type": "string"
				}
			],
			"name": "whitelistPermissions",
			"outputs": [],
			"stateMutability": "nonpayable",
			"type": "function"
		},
		{
			"inputs": [
				{
					"internalType": "uint8",
					"name": "v",
					"type": "uint8"
				},
				{
					"internalType": "bytes32",
					"name": "r",
					"type": "bytes32"
				},
				{
					"internalType": "bytes32",
					"name": "s",
					"type": "bytes32"
				},
				{
					"internalType": "address",
					"name": "sender",
					"type": "address"
				},
				{
					"internalType": "string",
					"name": "param",
					"type": "string"
				}
			],
			"name": "whitelistRolePermission",
			"outputs": [],
			"stateMutability": "nonpayable",
			"type": "function"
		}
	]
}